:10024C00120180E4FDFF12022CAF0CAE0B12000366
:0C025C007FDF1201E17F431201E180E727
:10029700E4FDFCC3ED9FEC9E50070DBD00010C80F3
:0102A700F264
:0102A8002233
:10020C00E4FDFCC3ED9FEC9E5015E4FBFA0BBB0028
:0F021C00010AEB647D4A70F50DBD00010C80E412
:01022B0022B0
:03028400120268FB
:10028700D2A27F037E00120297C2A27F3202029798
:10026800EF1392A4EFC3131392A5EF1313543F1384
:0C02780092A6EF131313541F1392A72239
:1002A900AB07EBC4540FFF120284AF0312026802BA
:0202B9000287BA
:0C02BB007F011202A97F0A7E0002029758
:10018000E4FF1202687F147E0012020CC2A0C2A11A
:100190007F031202847F057E0012020C1202877F09
:1001A000647E001202971202877F02120268120216
:1001B000877F281202A97F0C1202A97F061202A9CA
:0501C0007F010202A90D
:10022C00ED7006EF2480FA8004EF24C0FA7FE87E9C
:10023C0003120297AF021202A97F327E00020297CC
:1001C5002430FF1201E1AE0DAF0E7C007D0A120056
:0C01D500F57C007D0A1200F5ED2430FFDF
:0801E100D2A01202A9C2A02263
:1001E9008B088A09890AAB08AA09A90A1200DCFF47
:1001F90060101201E17401250AF50AE43509F509CF
:0302090080E4226C
:100003008E0D8F0ED3E50E9409E50D648094805018
:1000130004EF0200D5D3E50E9409E50D64809480C6
:10002300402DE50E9464E50D648094805021AE0D5F
:10003300AF0E7C007D0A1200F5EF2430FF1201E1C0
:10004300AE0DAF0E7C007D0A1200F5ED0200D5D394
:10005300E50E9463E50D648094804029E50E94E8F1
:10006300E50D64809483501DAE0DAF0E7C007D645E
:100073001200F5EF1201C5AE0DAF0E7C007D0A1222
:1000830000F5ED804DD3E50E94E7E50D6480948390
:100093004046E50E9410E50D648094A7503AAE0DEA
:1000A300AF0E7C037DE81200F5EF2430FF1201E16F
:1000B300AE0DAF0E7C007D641200F57C007D0A124C
:1000C30000F5ED1201C5AE0DAF0E7C007D0A1200E6
:0900D300F5ED2430FF1201E122D9
:030000000202C732
:0C02C700787FE4F6D8FD75810E02024C31
:1000DC00BB010689828A83E0225002E722BBFE0222
:0900EC00E32289828A83E4932255
:1000F500C2D5EC30E709B2D5E4C39DFDE49CFCEE26
:1001050030E715B2D5E4C39FFFE49EFE12012BC371
:10011500E49DFDE49CFC800312012B30D507C3E46C
:060125009FFFE49EFE2294
:10012B00BC000BBE0029EF8DF084FFADF022E4CCB8
:10013B00F875F008EF2FFFEE33FEEC33FCEE9DEC81
:10014B00984005FCEE9DFE0FD5F0E9E4CEFD22EDC7
:10015B00F8F5F0EE8420D21CFEADF075F008EF2F11
:10016B00FFED33FD4007985006D5F0F222C398FD02
:05017B000FD5F0EA229F
:00000001FF
