:0D032C004E6869657420646F3A002A430032
:10025700EF139290EFA2E19291A2E29292D293D2FF
:1002670094C293C2942095FD3095FDD296AFB0C24B
:0102770096F0
:010278002263
:1001D0008F097BFF7A03792C120234E50975F064EC
:1001E000842430FF12022CE50975F06484E5F07573
:1001F000F00A842430FF12022CE50975F00A84E528
:10020000F02430FF12022C7BFF7A0379360202348D
:03000B000203519C
:09035100758CFC758A18B2973214
:10027900758901D28CD2AFD2A912018BE4FF120287
:10028900578F08E4FDFF1202B9AF081201D080ECC4
:10030800E4FDFCC3ED9FEC9E50070DBD00010C8081
:01031800F2F2
:0103190022C1
:10029900E4FDFCC3ED9FEC9E5015E4FBFA0BBB009B
:0F02A900010AEB647D4A70F50DBD00010C80E485
:0102B8002223
:0302F5001202D919
:1002F800D2A27F037E00120308C2A27F3202030843
:1002D900EF1392A4EFC3131392A5EF1313543F1313
:0C02E90092A6EF131313541F1392A722C8
:10031A00AB07EBC4540FFF1202F5AF031202D90266
:02032A0002F8D7
:0C0339007F0112031A7F0A7E00020308F5
:10018B00E4FF1202D97F147E00120299C2A0C2A111
:10019B007F031202F57F057E001202991202F87F8F
:1001AB00647E001203081202F87F021202D91202B7
:1001BB00F87F2812031A7F0C12031A7F0612031AF8
:0501CB007F0102031A90
:1002B900ED7006EF2480FA8004EF24C0FA7FE87E0F
:1002C90003120308AF0212031A7F327E00020308E9
:100210002430FF12022CAE0DAF0E7C007D0A1201BD
:0C022000007C007D0A120100ED2430FF7C
:08022C00D2A012031AC2A022A5
:100234008B0A8A0B890CAB0AAA0BA90C1200E7FFE4
:10024400601012022C7401250CF50CE4350BF50B2F
:0302540080E42221
:10000E008E0D8F0ED3E50E9409E50D64809480500D
:10001E0004EF0200E0D3E50E9409E50D64809480B0
:10002E00402DE50E9464E50D648094805021AE0D54
:10003E00AF0E7C007D0A120100EF2430FF12022C5D
:10004E00AE0DAF0E7C007D0A120100ED0200E0D372
:10005E00E50E9463E50D648094804029E50E94E8E6
:10006E00E50D64809483501DAE0DAF0E7C007D6453
:10007E00120100EF120210AE0DAF0E7C007D0A12BF
:10008E000100ED804DD3E50E94E7E50D6480948379
:10009E004046E50E9410E50D648094A7503AAE0DDF
:1000AE00AF0E7C037DE8120100EF2430FF12022C0C
:1000BE00AE0DAF0E7C007D641201007C007D0A1235
:1000CE000100ED120210AE0DAF0E7C007D0A120182
:0900DE0000ED2430FF12022C2277
:03000000020345B3
:0C034500787FE4F6D8FD75810E02027985
:1000E700BB010689828A83E0225002E722BBFE0217
:0900F700E32289828A83E493224A
:10010000C2D5EC30E709B2D5E4C39DFDE49CFCEE1A
:1001100030E715B2D5E4C39FFFE49EFE120136C35B
:10012000E49DFDE49CFC800312013630D507C3E456
:060130009FFFE49EFE2289
:10013600BC000BBE0029EF8DF084FFADF022E4CCAD
:10014600F875F008EF2FFFEE33FEEC33FCEE9DEC76
:10015600984005FCEE9DFE0FD5F0E9E4CEFD22EDBC
:10016600F8F5F0EE8420D21CFEADF075F008EF2F06
:10017600FFED33FD4007985006D5F0F222C398FDF7
:050186000FD5F0EA2294
:00000001FF
