:0A00DF000808FF897676767689FF1F
:1000BB00E4FDFCC3ED9FEC9E5019758901758CFC1A
:1000CB00758A18D28C308DFDC28DC28C0DBD00018E
:0300DB000C80E0B6
:0100DE0022FF
:10008F00E4FBFAAF03A8077480088002C313D8FCFF
:10009F00F5A074082BF8E6F5B07F017E001200BBC7
:0B00AF000BBB00010AEB64084A70D88C
:0100BA002223
:0800EA00E4F5B075A0FF80F8F9
:03000000020003F8
:0C000300787FE4F6D8FD75810F02004AFA
:10000F000200EAE493A3F8E493A34003F68001F21D
:10001F0008DFF48029E493A3F85407240CC8C333F2
:10002F00C4540F4420C8834004F456800146F6DFC1
:10003F00E4800B01020408102040809000DFE47E72
:10004F00019360BCA3FF543F30E509541FFEE493B6
:10005F00A360010ECF54C025E060A840B8E493A37D
:10006F00FAE493A3F8E493A3C8C582C8CAC583CAA8
:10007F00F0A3C8C582C8CAC583CADFE9DEE780BE60
:0100E9000016
:00000001FF
