:10028C005452414E205155414E472054484149004B
:0B029C00343335313137303234380054
:1001C500120180E4FDFF1202507BFF7A02798C1246
:1001D500020D7D01E4FF1202507BFF7A02799C1229
:0401E500020D80FE89
:1002BA00E4FDFCC3ED9FEC9E50070DBD00010C80D0
:0102CA00F241
:0102CB002210
:10023000E4FDFCC3ED9FEC9E5015E4FBFA0BBB0004
:0F024000010AEB647D4A70F50DBD00010C80E4EE
:01024F00228C
:0302A700120270D0
:1002AA00D2827F037E001202BAC2827F320202BA6F
:10027000EF139284EFC313139285EF1313543F13BC
:0C0280009286EF131313541F1392872271
:1002CC00AB07EBC4540FFF1202A7AF03120270026C
:0202DC0002AA74
:0C02DE007F011202CC7F0A7E000202BAEF
:10018000E4FF1202707F147E00120230C280C2812E
:100190007F031202A77F057E001202301202AA7F9F
:1001A000647E001202BA1202AA7F021202701202C8
:1001B000AA7F281202CC7F0C1202CC7F061202CC3E
:0501C0007F010202CCEA
:10025000ED7006EF2480FA8004EF24C0FA7FE87E78
:10026000031202BAAF021202CC7F327E000202BA3F
:1001E9002430FF120205AE0BAF0C7C007D0A120011
:0C01F900F57C007D0A1200F5ED2430FFBB
:08020500D2801202CCC280225B
:10020D008B088A09890AAB08AA09A90A1200DCFF22
:10021D0060101202057401250AF50AE43509F50985
:03022D0080E42248
:100003008E0B8F0CD3E50C9409E50B648094805020
:1000130004EF0200D5D3E50C9409E50B64809480CA
:10002300402DE50C9464E50B648094805021AE0B65
:10003300AF0C7C007D0A1200F5EF2430FF1202059D
:10004300AE0BAF0C7C007D0A1200F5ED0200D5D398
:10005300E50C9463E50B648094804029E50C94E8F7
:10006300E50B64809483501DAE0BAF0C7C007D6464
:100073001200F5EF1201E9AE0BAF0C7C007D0A1202
:1000830000F5ED804DD3E50C94E7E50B6480948394
:100093004046E50C9410E50B648094A7503AAE0BF0
:1000A300AF0C7C037DE81200F5EF2430FF1202054C
:1000B300AE0BAF0C7C007D641200F57C007D0A1250
:1000C30000F5ED1201E9AE0BAF0C7C007D0A1200C6
:0900D300F5ED2430FF12020522B4
:030000000202EA0F
:0C02EA00787FE4F6D8FD75810C0201C598
:1000DC00BB010689828A83E0225002E722BBFE0222
:0900EC00E32289828A83E4932255
:1000F500C2D5EC30E709B2D5E4C39DFDE49CFCEE26
:1001050030E715B2D5E4C39FFFE49EFE12012BC371
:10011500E49DFDE49CFC800312012B30D507C3E46C
:060125009FFFE49EFE2294
:10012B00BC000BBE0029EF8DF084FFADF022E4CCB8
:10013B00F875F008EF2FFFEE33FEEC33FCEE9DEC81
:10014B00984005FCEE9DFE0FD5F0E9E4CEFD22EDC7
:10015B00F8F5F0EE8420D21CFEADF075F008EF2F11
:10016B00FFED33FD4007985006D5F0F222C398FD02
:05017B000FD5F0EA229F
:00000001FF
