:0C011C000A08C0F9A4B0999282F8809003
:03000B00020003ED
:03000300B297327F
:10010000EF139290EFA2E19291A2E29292D293D257
:0B01100094C293C294D296AFB0C29686
:01011B0022C1
:1000DC00E4FDFCC3ED9FEC9E5019758901758CFCF9
:1000EC00758A18D28C308DFDC28DC28C0DBD00016D
:0300FC000C80E095
:0100FF0022DE
:10009A00758901758CFF758AFFD28CD2AFD2A9E41B
:1000AA00FF120100AB07D280EB75F00A842408F82E
:1000BA00E6F5A07F427E001200DCC280D281EB7599
:1000CA00F00A84740825F0F8E6F5A01200DCC28173
:0200DA0080CDD7
:0300000002000EED
:0C000E00787FE4F6D8FD758111020055E2
:10001A0002009AE493A3F8E493A34003F68001F262
:10002A0008DFF48029E493A3F85407240CC8C333E7
:10003A00C4540F4420C8834004F456800146F6DFB6
:10004A00E4800B010204081020408090011CE47E29
:10005A00019360BCA3FF543F30E509541FFEE493AB
:10006A00A360010ECF54C025E060A840B8E493A372
:10007A00FAE493A3F8E493A3C8C582C8CAC583CA9D
:10008A00F0A3C8C582C8CAC583CADFE9DEE780BE55
:0101280000D6
:00000001FF
