:0A013F000808FF897676767689FFBE
:10011B00E4FDFCC3ED9FEC9E5019758901758CFCB9
:10012B00758A18D28C308DFDC28DC28C0DBD00012D
:03013B000C80E055
:01013E00229E
:1000E700E4F518F519AF19A8077480088002C3133F
:1000F700D8FCF5A074082FF8E6F5B07F017E001252
:10010700011B0519E51970020518D39407E5189422
:040117000040D222B0
:10008F00E4FBFA1200E70BBB00010AEB64324A7083
:10009F00F2850F10751800751901AF1974072FF835
:1000AF00E6FE74102FF8A6060519E519700205185B
:1000BF006408451870E4E4F518F519AF1974102F9A
:1000CF00F8E6FE74082FF8A6060519E51970020563
:0700DF00186408451870E4E5
:0100E60022F7
:08014A00E4F5B075A0FF80F898
:03000000020003F8
:0C000300787FE4F6D8FD75811B02004AEE
:10000F0002014AE493A3F8E493A34003F68001F2BC
:10001F0008DFF48029E493A3F85407240CC8C333F2
:10002F00C4540F4420C8834004F456800146F6DFC1
:10003F00E4800B010204081020408090013FE47E11
:10004F00019360BCA3FF543F30E509541FFEE493B6
:10005F00A360010ECF54C025E060A840B8E493A37D
:10006F00FAE493A3F8E493A3C8C582C8CAC583CAA8
:10007F00F0A3C8C582C8CAC583CADFE9DEE780BE60
:0101490000B5
:00000001FF
