:10040900010A00100B0000000000000000000000BD
:09041900000000000002080000D0
:10034200E4FDFCC3ED9FEC9E5019758901758CFC90
:10035200758A18D28C308DFDC28DC28C0DBD000104
:030362000C80E02C
:010365002275
:10020C007FFFC2902094027F432095027F3020967E
:10021C00027F3D2097027F2BD290C2912094027FC7
:10022C00312095027F322096027F332097027F2D5A
:10023C00D291C2922094027F342095027F35209671
:10024C00027F362097027F2AD292C2932094027F9B
:10025C00372095027F382096027F392097027F2F16
:02026C00D2932B
:01026E00226D
:10031700E4FDFF1203CDE4F520F521C3E52195099E
:10032700E52095085014740B2521F8E6FF12038287
:0A0337000521E52170E5052080E1B5
:010341002299
:0E045A00E50AB44308120468E4F508F5092227
:10026F001202D212020C8F0AEFF4604F7FFA7E0057
:10027F00120342D3E5099410E5089400500F740B54
:10028F002509F8A60A0509E50970020508D3E5094D
:10029F009410E50894004023E4FFFE740C2FF8E659
:1002AF00FD740B2FF8A6050FBF00010EEF640F4E64
:1002BF0070E9850A1A75080075091012045A12039D
:0302CF001780A0F5
:10043600E4FDFCC3ED9FEC9E50070DBD00010C8052
:01044600F2C3
:010447002292
:1003AD00E4FDFCC3ED9FEC9E5015E4FBFA0BBB0086
:0F03BD00010AEB647D4A70F50DBD00010C80E470
:0103CC00220E
:030423001203EDD4
:10042600D2827F037E00120436C2827F32020436F5
:1003ED00EF139284EFC313139285EF1313543F133E
:0C03FD009286EF131313541F13928722F3
:10044800AB07EBC4540FFF120423AF031203ED02F2
:02045800042678
:0C0468007F011204487F0A7E0002043667
:1002D200E4FF1203ED7F147E001203ADC280C281DF
:1002E2007F031204237F057E001203AD1204267FD2
:1002F200647E001204361204267F021203ED1204F9
:10030200267F281204487F0C1204487F06120448F4
:050312007F0102044818
:1003CD00ED7006EF2480FA8004EF24C0FA7FE87EFA
:1003DD0003120436AF021204487F327E0002043647
:100366002430FF120382AE1EAF1F7C007D0A1200EE
:0C037600F57C007D0A1200F5ED2430FF3C
:08038200D280120448C280225F
:10038A008B1B8A1C891DAB1BAA1CA91D1200DCFF32
:10039A0060101203827401251DF51DE4351CF51C3D
:0303AA0080E422CA
:100003008E1E8F1FD3E51F9409E51E6480948050D4
:1000130004EF0200D5D3E51F9409E51E64809480A4
:10002300402DE51F9464E51E648094805021AE1E2C
:10003300AF1F7C007D0A1200F5EF2430FF1203820C
:10004300AE1EAF1F7C007D0A1200F5ED0200D5D372
:10005300E51F9463E51E648094804029E51F94E8BE
:10006300E51E64809483501DAE1EAF1F7C007D642B
:100073001200F5EF120366AE1EAF1F7C007D0A125D
:1000830000F5ED804DD3E51F94E7E51E648094836E
:100093004046E51F9410E51E648094A7503AAE1EB7
:1000A300AF1F7C037DE81200F5EF2430FF120382BB
:1000B300AE1EAF1F7C007D641200F57C007D0A122A
:1000C30000F5ED120366AE1EAF1F7C007D0A120021
:0900D300F5ED2430FF1203822236
:030000000201807A
:0C018000787FE4F6D8FD7581210201C7EC
:1000DC00BB010689828A83E0225002E722BBFE0222
:0900EC00E32289828A83E4932255
:1000F500C2D5EC30E709B2D5E4C39DFDE49CFCEE26
:1001050030E715B2D5E4C39FFFE49EFE12012BC371
:10011500E49DFDE49CFC800312012B30D507C3E46C
:060125009FFFE49EFE2294
:10018C0002026FE493A3F8E493A34003F68001F218
:10019C0008DFF48029E493A3F85407240CC8C33374
:1001AC00C4540F4420C8834004F456800146F6DF43
:1001BC00E4800B0102040810204080900409E47EC6
:1001CC00019360BCA3FF543F30E509541FFEE49338
:1001DC00A360010ECF54C025E060A840B8E493A3FF
:1001EC00FAE493A3F8E493A3C8C582C8CAC583CA2A
:1001FC00F0A3C8C582C8CAC583CADFE9DEE780BEE2
:0104220000D9
:10012B00BC000BBE0029EF8DF084FFADF022E4CCB8
:10013B00F875F008EF2FFFEE33FEEC33FCEE9DEC81
:10014B00984005FCEE9DFE0FD5F0E9E4CEFD22EDC7
:10015B00F8F5F0EE8420D21CFEADF075F008EF2F11
:10016B00FFED33FD4007985006D5F0F222C398FD02
:05017B000FD5F0EA229F
:00000001FF
