:0C00D0000A080008040C020A060E0109D0
:10008F00E4FDFCC3ED9FEC9E5019758901758CFC46
:10009F00758A18D28C308DFDC28DC28C0DBD0001BA
:0300AF000C80E0E2
:0100B200222B
:1000B300E4FBFA74082BF8E6F5907FF47E01120056
:0C00C3008F0BBB00010AEB640A4A70E7D7
:0100CF00220E
:0300DD000200B36B
:03000000020003F8
:0C000300787FE4F6D8FD75811102004AF8
:10000F000200DDE493A3F8E493A34003F68001F22A
:10001F0008DFF48029E493A3F85407240CC8C333F2
:10002F00C4540F4420C8834004F456800146F6DFC1
:10003F00E4800B01020408102040809000D0E47E81
:10004F00019360BCA3FF543F30E509541FFEE493B6
:10005F00A360010ECF54C025E060A840B8E493A37D
:10006F00FAE493A3F8E493A3C8C582C8CAC583CAA8
:10007F00F0A3C8C582C8CAC583CADFE9DEE780BE60
:0100DC000023
:00000001FF
