:10048600010A00100D00000000000000000000003E
:0D049600000000000002080000020B000042
:1003DB00E4FDFCC3ED9FEC9E5019758901758CFCF7
:1003EB00758A18D28C308DFDC28DC28C0DBD00016B
:0303FB000C80E093
:0103FE0022DC
:1002C8007FFFC2902094027F432095027F302096C2
:1002D800027F3D2097027F2BD290C2912094027F0B
:1002E800312095027F322096027F332097027F2D9E
:1002F800D291C2922094027F342095027F352096B5
:10030800027F362097027F2AD292C2932094027FDE
:10031800372095027F382096027F392097027F2F59
:02032800D2936E
:01032A0022B0
:10037000E4FDFF120466E4F51DF51EC3E51E9509B4
:10038000E51D95085014740D251EF8E6FF12041B98
:10039000051EE51E70E5051D80E1E510B43D0E7DEE
:0D03A00001E4FF120466AF0CAE0B12000367
:0103AD00222D
:10019200E50EB42B25AF0FEF3395E0FEEF24D0FF31
:1001A200EE34FFFEAD0DED3395E0FCED24D0FDEC19
:1001B20034FFCD2FF50CED3EF50BE50EB42D26AF39
:1001C2000FEF3395E0FEEF24D0FFEE34FFFEAD0DCE
:1001D200ED3395E0FCED24D0FDEC34FFCDC39FF56B
:1001E2000CED9EF50BE50EB42A25AF0FEF3395E02B
:1001F200FEEF24D0FDEE34FFFCAF0DEF3395E0FEB1
:10020200EF24D0FFEE34FFFE1200F58E0B8F0CE5CB
:100212000EB42F25AF0FEF3395E0FEEF24D0FDEEA5
:1002220034FFFCAF0DEF3395E0FEEF24D0FFEE3448
:0A023200FFFE1201078E0B8F0C2255
:1004F700E50AB4430BE4F508F50975102012050861
:0105070022D1
:1003AE0012032B1202C88F0AEFF460167FFA7E003A
:1003BE001203DB740D2509F8A60A0509E50970027A
:0D03CE0005081204F712019212037080D688
:1004D300E4FDFCC3ED9FEC9E50070DBD00010C80B5
:0104E300F226
:0104E40022F5
:10044600E4FDFCC3ED9FEC9E5015E4FBFA0BBB00EC
:0F045600010AEB647D4A70F50DBD00010C80E4D6
:010465002274
:0304C0001204A47F
:1004C300D2827F037E001204D3C2827F320204D31E
:1004A400EF139284EFC313139285EF1313543F1386
:0C04B4009286EF131313541F139287223B
:1004E500AB07EBC4540FFF1204C0AF031204A40200
:0204F50004C33E
:0C0508007F011204E57F0A7E000204D38C
:10032B00E4FF1204A47F147E00120446C280C28133
:10033B007F031204C07F057E001204461204C37FA4
:10034B00647E001204D31204C37F021204A41204AD
:10035B00C37F281204E57F0C1204E57F061204E527
:05036B007F010204E522
:10046600ED7006EF2480FA8004EF24C0FA7FE87E60
:10047600031204D3AF021204E57F327E000204D3D6
:1003FF002430FF12041BAE1FAF207C007D0A1201B8
:0C040F00077C007D0A120107ED2430FF7D
:08041B00D2801204E5C2802228
:100423008B218A228923AB21AA22A9231200DCFF74
:10043300601012041B74012523F523E43522F522F1
:0304430080E42230
:100003008E1F8F20D3E5209409E51F6480948050D0
:1000130004EF0200D5D3E5209409E51F64809480A2
:10002300402DE5209464E51F648094805021AE1F29
:10003300AF207C007D0A120107EF2430FF12041B5E
:10004300AE1FAF207C007D0A120107ED0200D5D35D
:10005300E5209463E51F648094804029E52094E8BB
:10006300E51F64809483501DAE1FAF207C007D6428
:10007300120107EF1203FFAE1FAF207C007D0A12AF
:100083000107ED804DD3E52094E7E51F6480948359
:100093004046E5209410E51F648094A7503AAE1FB4
:1000A300AF207C037DE8120107EF2430FF12041B0D
:1000B300AE1FAF207C007D641201077C007D0A1215
:1000C3000107ED1203FFAE1FAF207C007D0A120172
:0900D30007ED2430FF12041B228A
:0300000002023CBD
:0C023C00787FE4F6D8FD75812302028370
:1000DC00BB010689828A83E0225002E722BBFE0222
:0900EC00E32289828A83E4932255
:1000F500EF8DF0A4A8F0CF8CF0A428CE8DF0A42E1F
:02010500FE22D8
:10010700C2D5EC30E709B2D5E4C39DFDE49CFCEE13
:1001170030E715B2D5E4C39FFFE49EFE12013DC34D
:10012700E49DFDE49CFC800312013D30D507C3E448
:060137009FFFE49EFE2282
:100248000203AEE493A3F8E493A34003F68001F21B
:1002580008DFF48029E493A3F85407240CC8C333B7
:10026800C4540F4420C8834004F456800146F6DF86
:10027800E4800B0102040810204080900486E47E8C
:10028800019360BCA3FF543F30E509541FFEE4937B
:10029800A360010ECF54C025E060A840B8E493A342
:1002A800FAE493A3F8E493A3C8C582C8CAC583CA6D
:1002B800F0A3C8C582C8CAC583CADFE9DEE780BE25
:0104A3000058
:10013D00BC000BBE0029EF8DF084FFADF022E4CCA6
:10014D00F875F008EF2FFFEE33FEEC33FCEE9DEC6F
:10015D00984005FCEE9DFE0FD5F0E9E4CEFD22EDB5
:10016D00F8F5F0EE8420D21CFEADF075F008EF2FFF
:10017D00FFED33FD4007985006D5F0F222C398FDF0
:05018D000FD5F0EA228D
:00000001FF
