:0C0164000A080008040C020A060E01093B
:0C008F0074082513F8E6F5907F327E001F
:10009B00E4FDFCC3ED9FEC9E5019758901758CFC3A
:1000AB00758A18D28C308DFDC28DC28C0DBD0001AE
:0300BB000C80E0D6
:0100BE00221F
:1000BF000513E51370020512D39409E512648094B9
:1000CF0080400675120075130974082513F8E6F5BC
:0800DF00907F327E0002009BBD
:1000E700E513151370021512C3E51264809480504E
:1000F70005E4F512F51374082513F8E6F5907F3239
:050107007E0002009BD8
:10012D00E4F512F51312008F0513E5137002051295
:0C013D00D39409E5126480948040EA220B
:1001490075120075130912008FE513151370021546
:0B01590012C3E5126480948050EC2279
:10010C00E4F512F513F59020B0031200BF20B103F3
:10011C001200E720B20312012D20B3EB120149802B
:01012C00E6EC
:03000000020003F8
:0C000300787FE4F6D8FD75811302004AF6
:10000F0002010CE493A3F8E493A34003F68001F2FA
:10001F0008DFF48029E493A3F85407240CC8C333F2
:10002F00C4540F4420C8834004F456800146F6DFC1
:10003F00E4800B0102040810204080900164E47EEC
:10004F00019360BCA3FF543F30E509541FFEE493B6
:10005F00A360010ECF54C025E060A840B8E493A37D
:10006F00FAE493A3F8E493A3C8C582C8CAC583CAA8
:10007F00F0A3C8C582C8CAC583CADFE9DEE780BE60
:01017000008E
:00000001FF
