:1003C9005452414E205155414E472054484149000D
:10036F0010082020203433353131373032343820E3
:02037F0020203C
:10028A00E4FDFCC3ED9FEC9E5019758901758CFC49
:10029A00758A18D28C308DFDC28DC28C0DBD0001BD
:0302AA000C80E0E5
:0102AD00222E
:1003B9007B007A0079081202D27FF47E0102028A58
:100251008517187F017E0074072FF8E6FD74182FAB
:10026100F8A6050FBF00010EEF64104E70E9E4FE21
:10027100FF74182FF8E6FD74082FF8A6050FBF00CC
:08028100010EEF64104E70E95C
:010289002252
:0603E5001203B9020251EF
:1003350012020CE4FDFF1203157BFF7A0379C91243
:0E03450002D27D01E4FF1203151203E580E5EC
:10039500E4FDFCC3ED9FEC9E50070DBD00010C80F4
:0103A500F265
:0103A6002234
:1002F500E4FDFCC3ED9FEC9E5015E4FBFA0BBB003F
:0F030500010AEB647D4A70F50DBD00010C80E428
:0103140022C6
:0303820012035310
:10038500D2827F037E00120395C2827F32020395DB
:10035300EF139284EFC313139285EF1313543F13D8
:0C0363009286EF131313541F139287228D
:1003A700AB07EBC4540FFF120382AF0312035302D0
:0203B7000385BC
:0C03D9007F011203A77F0A7E000203953B
:10020C00E4FF1203537F147E001202F5C280C281F8
:10021C007F031203827F057E001202F51203857F95
:10022C00647E001203951203857F0212035312039E
:10023C00857F281203A77F0C1203A77F061203A742
:05024C007F010203A781
:10031500ED7006EF2480FA8004EF24C0FA7FE87EB2
:1003250003120395AF021203A77F327E00020395E5
:1002AE002430FF1202CAAE2BAF2C7C007D0A120046
:0C02BE00F57C007D0A1200F5ED2430FFF5
:0802CA00D2801203A7C28022BA
:1002D2008B288A29892AAB28AA29A92A1200DCFF9D
:1002E20060101202CA7401252AF52AE43529F5297B
:0302F20080E42283
:100003008E2B8F2CD3E52C9409E52B6480948050A0
:1000130004EF0200D5D3E52C9409E52B648094808A
:10002300402DE52C9464E52B648094805021AE2B05
:10003300AF2C7C007D0A1200F5EF2430FF1202CAB8
:10004300AE2BAF2C7C007D0A1200F5ED0200D5D358
:10005300E52C9463E52B648094804029E52C94E897
:10006300E52B64809483501DAE2BAF2C7C007D6404
:100073001200F5EF1202AEAE2BAF2C7C007D0A12FC
:1000830000F5ED804DD3E52C94E7E52B6480948354
:100093004046E52C9410E52B648094A7503AAE2B90
:1000A300AF2C7C037DE81200F5EF2430FF1202CA67
:1000B300AE2BAF2C7C007D641200F57C007D0A1210
:1000C30000F5ED1202AEAE2BAF2C7C007D0A1200C0
:0900D300F5ED2430FF1202CA22EF
:030000000201807A
:0C018000787FE4F6D8FD75812C0201C7E1
:1000DC00BB010689828A83E0225002E722BBFE0222
:0900EC00E32289828A83E4932255
:1000F500C2D5EC30E709B2D5E4C39DFDE49CFCEE26
:1001050030E715B2D5E4C39FFFE49EFE12012BC371
:10011500E49DFDE49CFC800312012B30D507C3E46C
:060125009FFFE49EFE2294
:10018C00020335E493A3F8E493A34003F68001F251
:10019C0008DFF48029E493A3F85407240CC8C33374
:1001AC00C4540F4420C8834004F456800146F6DF43
:1001BC00E4800B010204081020408090036FE47E61
:1001CC00019360BCA3FF543F30E509541FFEE49338
:1001DC00A360010ECF54C025E060A840B8E493A3FF
:1001EC00FAE493A3F8E493A3C8C582C8CAC583CA2A
:1001FC00F0A3C8C582C8CAC583CADFE9DEE780BEE2
:01038100007B
:10012B00BC000BBE0029EF8DF084FFADF022E4CCB8
:10013B00F875F008EF2FFFEE33FEEC33FCEE9DEC81
:10014B00984005FCEE9DFE0FD5F0E9E4CEFD22EDC7
:10015B00F8F5F0EE8420D21CFEADF075F008EF2F11
:10016B00FFED33FD4007985006D5F0F222C398FD02
:05017B000FD5F0EA229F
:00000001FF
