:0C00E6000A0834333531313730323438F9
:0B00F300EF1FAC0670011E4C70F622DF
:1000D500C29FD29E758920758DFDD28ED299D29CF4
:0100E50022F8
:10008F00E4FBFAEB64084A6006EB64094A7004C2A9
:10009F00818002D2813099FDC29974082BF8E6F560
:1000AF00997FE07E931200F30BBB00010AEB640A09
:0300BF004A70D0B4
:0100C200221B
:1000C3001200D52080FD7FA07E861200F312008FE0
:0200D30080F1BA
:03000000020003F8
:0C000300787FE4F6D8FD75811102004AF8
:10000F000200C3E493A3F8E493A34003F68001F244
:10001F0008DFF48029E493A3F85407240CC8C333F2
:10002F00C4540F4420C8834004F456800146F6DFC1
:10003F00E4800B01020408102040809000E6E47E6B
:10004F00019360BCA3FF543F30E509541FFEE493B6
:10005F00A360010ECF54C025E060A840B8E493A37D
:10006F00FAE493A3F8E493A3C8C582C8CAC583CAA8
:10007F00F0A3C8C582C8CAC583CADFE9DEE780BE60
:0100F200000D
:00000001FF
