:03000000020003F8
:0C000300787FE4F6D8FD75811702004AF2
:1000C60008080103070F1F3F7FFF0810FEFCF8F02A
:0400D600E0C0800006
:0900DB002BF8E6F5907FA07E866B
:0B00E400EF1FAC0670011E4C70F622EE
:1000EF00E4FBFA74081200DB0BBB00010AEB640897
:0300FF004A70F054
:0101020022DA
:10008F007590FF7F307E751200E4E4FBFA74101256
:0D009F0000DB0BBB00010AEB64084A70F0A7
:0100AC002231
:1000AD00E4FBFA7590FF1200E0E41200DE0BBB00DA
:0800BD00010AEB64064A70EB36
:0100C5002218
:0B0103001200EF1200AD12008F80F51B
:10000F00020103E493A3F8E493A34003F68001F203
:10001F0008DFF48029E493A3F85407240CC8C333F2
:10002F00C4540F4420C8834004F456800146F6DFC1
:10003F00E4800B01020408102040809000C6E47E8B
:10004F00019360BCA3FF543F30E509541FFEE493B6
:10005F00A360010ECF54C025E060A840B8E493A37D
:10006F00FAE493A3F8E493A3C8C582C8CAC583CAA8
:10007F00F0A3C8C582C8CAC583CADFE9DEE780BE60
:0100DA000025
:00000001FF
