:0C008F000A080008040C020A060E010911
:08009C0074082FF8E6F590222C
:0700A4007F017E0002009CB9
:03000000020003F8
:0C000300787FE4F6D8FD75811102004AF8
:10000F000200A4E493A3F8E493A34003F68001F263
:10001F0008DFF48029E493A3F85407240CC8C333F2
:10002F00C4540F4420C8834004F456800146F6DFC1
:10003F00E4800B010204081020408090008FE47EC2
:10004F00019360BCA3FF543F30E509541FFEE493B6
:10005F00A360010ECF54C025E060A840B8E493A37D
:10006F00FAE493A3F8E493A3C8C582C8CAC583CAA8
:10007F00F0A3C8C582C8CAC583CADFE9DEE780BE60
:01009B000064
:00000001FF
