:10011A00081A0103070F1F3F7FFF090800010307A1
:10012A000F1F3F7FFF09110080C0E0F0F8FCFEFFBF
:09013A000122010123000124004F
:09015C002BF8E6F5907FA07E86E9
:0B016500EF1FAC0670011E4C70F6226C
:10017000E4FBFA740812015C0BBB00010AEB640992
:030180004A70F0D2
:010183002259
:10018400E4FBFA741112015C0BBB00010AEB640975
:030194004A70F0BE
:010197002245
:100198007590FF120161E4F5907F507EC3020165FE
:10014400AF24EF3395E0FEC36480948050097CFFB4
:080154007DFF1201088F242237
:10008F00E4F590E5228523F0A4FFE5222523C39F05
:10009F00F524120144E52475F0021200E6AFF0EFEB
:1000AF003395E04F700CAF24EF3395E04F600312A0
:1000BF000170E52475F0021200E6AFF0EF3395E022
:1000CF00FEEF64014E7003120184AF24EF3395E00D
:0700DF004F7003120198228B
:03000000020003F8
:0C000300787FE4F6D8FD75812402004AE5
:1000E600C2D530F707B2D563F0FF05F030E70CB2A2
:1000F600D5F4048463F0FF05F080018430D502F462
:020106000422D1
:10010800EF8DF0A4A8F0CF8CF0A428CE8DF0A42E0B
:02011800FE22C5
:10000F0002008FE493A3F8E493A34003F68001F278
:10001F0008DFF48029E493A3F85407240CC8C333F2
:10002F00C4540F4420C8834004F456800146F6DFC1
:10003F00E4800B010204081020408090011AE47E36
:10004F00019360BCA3FF543F30E509541FFEE493B6
:10005F00A360010ECF54C025E060A840B8E493A37D
:10006F00FAE493A3F8E493A3C8C582C8CAC583CAA8
:10007F00F0A3C8C582C8CAC583CADFE9DEE780BE60
:0101430000BB
:00000001FF
