:0B00C9000908000103070F1F3F7FFF25
:10008F00E4FFFE758901758CFC758A18D28C308D52
:10009F00FDC28DC28C0FBF00010EEF64C84E70E31E
:0100AF00222E
:1000B000E4FDFC74082DF8E6F59012008F0DBD00EC
:0800C000010CED64094C70EB2A
:0100C8002215
:03000000020003F8
:0C000300787FE4F6D8FD75811002004AF9
:10000F000200B0E493A3F8E493A34003F68001F257
:10001F0008DFF48029E493A3F85407240CC8C333F2
:10002F00C4540F4420C8834004F456800146F6DFC1
:10003F00E4800B01020408102040809000C9E47E88
:10004F00019360BCA3FF543F30E509541FFEE493B6
:10005F00A360010ECF54C025E060A840B8E493A37D
:10006F00FAE493A3F8E493A3C8C582C8CAC583CAA8
:10007F00F0A3C8C582C8CAC583CADFE9DEE780BE60
:0100D400002B
:00000001FF
